:020000040800F2
:1000000000000820F5560008191500081D15000805
:10001000211500082515000829150008000000001A
:100020000000000000000000000000002D15000886
:1000300031150008000000003515000839150008CA
:100040004557000845570008455700084557000820
:1000500045570008455700083D150008455700085A
:100060004557000845570008455700084557000800
:1000700045570008455700084557000845570008F0
:100080004557000845570008511500084557000816
:1000900045570008455700084557000845570008D0
:1000A00045570008455700084557000845570008C0
:1000B00045570008455700084557000845570008B0
:1000C00045570008455700084557000845570008A0
:1000D0004557000845570008455700084557000890
:1000E0004557000845570008455700084557000880
:1000F0004557000845570008455700084557000870
:10010000455700084557000845570008455700085F
:100110004557000845570008455700085D15000879
:100120007515000845570008455700084557000851
:10013000455700084557000845570008455700082F
:10014000455700084557000845570008455700081F
:10015000455700084557000845570008455700080F
:1001600045570008455700084557000845570008FF
:100170004557000881150008455700080000000099
:1001800045570008455700084557000845570008DF
:1001900045570008455700084557000845570008CF
:1001A00045570008455700084557000845570008BF
:1001B00045570008455700084557000845570008AF
:1001C000455700084557000845570008455700089F
:1001D000455700084557000845570008455700088F
:1001E000455700084557000845570008455700087F
:0801F0004557000845570008BF
:1001F8000348044B834202D0034B03B118477047AE
:10020800D4090020D4090020000000000548064950
:10021800091A891001EBD171491002D0034B03B1BF
:1002280018477047D4090020D409002000000000B6
:1002380010B5064C237843B9FFF7DAFF044B13B126
:100248000448AFF300800123237010BDD4090020B7
:10025800000000005C57000808B5044B1BB10449B6
:100268000448AFF30080BDE80840CFE70000000075
:10027800D80900205C57000853B94AB9002908BFBB
:1002880000281CBF4FF0FF314FF0FF3000F072B96B
:10029800ADF1080C6DE904CE00F006F8DDF804E0D5
:1002A800DDE9022304B070472DE9F047089E0446B3
:1002B8008846002B4BD18A42154667D9B2FA82F29A
:1002C8004AB1C2F1200701FA02F320FA07F7954074
:1002D80047EA030894404FEA154E230CB8FBFEF793
:1002E8001FFA85FC0EFB178843EA084307FB0CF14D
:1002F800994209D9EB1807F1FF3080F01B81994228
:1003080040F21881023F2B445B1AA4B2B3FBFEF003
:100318000EFB103344EA034400FB0CFCA44509D946
:100328002C1900F1FF3380F00781A44540F20481C5
:1003380002382C4440EA0740A4EB0C0400271EB105
:10034800D4400023C6E900433946BDE8F0878B4214
:1003580009D9002E00F0EB800027C6E900013846D5
:100368003946BDE8F087B3FA83F7002F47D18B42AF
:1003780002D3824200F2FA80841A61EB030301205F
:100388009846002EE0D0C6E90048DDE702B9FFDE56
:10039800B2FA82F2002A40F08F80491B4FEA154ECC
:1003A8001FFA85F80127B1FBFEFC230C0EFB1C117C
:1003B80043EA014308FB0CF1994207D9EB180CF109
:1003C800FF3002D2994200F2CD808446591AA3B276
:1003D800B1FBFEF00EFB101443EA044408FB00F8DE
:1003E800A04507D92C1900F1FF3302D2A04500F22D
:1003F800B6801846A4EB080440EA0C409FE7C7F112
:10040800200CBB4022FA0CFE4EEA030E01FA07F458
:1004180020FA0CF521FA0CF34FEA1E482543B3FBEA
:10042800F8F92C0C08FB19331FFA8EFA44EA034337
:1004380009FB0AF49C4202FA07F200FA07F10BD909
:100448001EEB030309F1FF3080F087809C4240F2E5
:100458008480A9F1020973441B1BADB2B3FBF8F009
:1004680008FB103345EA034400FB0AFAA24508D901
:100478001EEB040400F1FF336BD2A24569D90238A0
:10048800744440EA0940A0FB0289A4EB0A044C45E5
:10049800C2464B4654D351D0002E69D0B1EB0A0561
:1004A80064EB030404FA0CFCFD40FC404CEA05052F
:1004B800C6E90054002747E7C2F1200320FA03F7F2
:1004C800954001FA02F021FA03F34FEA154E38433A
:1004D800010CB3FBFEF71FFA85F80EFB173341EA50
:1004E800034107FB08F38B4204FA02F407D96918A1
:1004F80007F1FF3C2FD28B422DD9023F2944CB1A5A
:1005080081B2B3FBFEF00EFB103341EA034100FB5E
:1005180008F38B4207D9691800F1FF3C17D28B42C8
:1005280015D902382944C91A40EA07473BE7374634
:10053800304609E70746E7E61846FBE64145ABD2F1
:10054800B8EB020A69EB0E0201381346A4E76046CD
:10055800E9E7184695E76746D1E781467CE7023820
:100568002C4447E7ACF1020C2B442FE7384608E748
:100578003746E9E6704700BF002301461A46184689
:1005880000F01EBB014B1868704700BF0000002038
:1005980038B50A4C0A4D641BA4100AD004F18043F4
:1005A800013B05EB8305013C55F804399847002CBD
:1005B800F9D1BDE8384005F0D3B800BFF0570008BE
:1005C800EC57000870B50D4E0D4D761BB61006D0D1
:1005D8000024013455F8043B9847A642F9D1094E46
:1005E800094D761B05F0B6F8B61006D00024013484
:1005F80055F8043B9847A642F9D170BDE457000866
:10060800E4570008EC570008E4570008024B01467D
:10061800186800F00BB800BF00000020024B01462C
:10062800186800F051BB00BF000000202DE9F04F12
:1006380001F10B05162D83B0064623D8102900F2C8
:10064800B98000F0A7FA102518230220D24F3B44A6
:10065800A3F108025C68944200F06F81636823F09C
:1006680003032344D4E902515A68E96042F00102C5
:100678008D6030465A6000F08FFA0834204603B087
:10068800BDE8F08F35F0070500F19480A94200F22B
:10069800918000F07FFAB5F5FC7FC0F083816B0A8A
:1006A80000F08F80042B00F24F81AB0903F1390071
:1006B80003F1380CC300B84F3B44A3F108015C6850
:1006C800A14206D10CE0002A80F22681E468A1420A
:1006D80006D0636823F003035A1B0F2AF3DD604634
:1006E8003C69DFF8B8C2644571D0636823F003033E
:1006F8005A1B0F2A00F33E81002AC7E904CC80F276
:100708002F81B3F5007F80F06981DB08591C7A6876
:1007180057F83180C4F808804FF0010E9B100EFA8C
:1007280003F307EBC10E1343AEF10802E2607B60EE
:1007380047F83140C8F80C408210012494409C428C
:100748004BD81C4206D120F0030064001C4200F183
:100758000400FAD007EBC009CE468046DEF80C301C
:100768009E4507D122E1002A80F22981DB689E4557
:1007780000F01C81596821F003014A1B0F2AF2DDA1
:10078800D3E9028E5C1945F001055D6042F0010570
:10079800C8F80CE03046CEF80880C7E90444C4E93C
:1007A80002CC65605A50009300F0F6F9009B03F103
:1007B800080463E700240C232046336003B0BDE837
:1007C800F08F4FF4007340204FF03F0C73E77B68C5
:1007D8008210012494409C42B3D9BC68636823F01A
:1007E8000309A94504D3A9EB05030F2B00F3848063
:1007F800DFF8ACA1D7F80824DAF80030013205EBAD
:10080800030800F0478108F5805808F10F0828F41C
:100818007F6828F00F084146304600F0BFF9B0F174
:10082800FF3F834600F0038104EB0900584500F2BE
:10083800FC80DAF8042008EB0201CAF8041000F082
:100848005A81D7F8083401331BBFABEB00025218AA
:10085800C7F808B4CAF804201BF0070300F0308179
:10086800C3F108029344C3F58052D8440832A2EB7E
:100878000802C2F30B02114630460193009200F0C1
:100888008DF9421CDDE9002300F06681DAF80410D6
:10089800C7F808B0A0EB0B03134443F0010311445D
:1008A800BC42CBF80430CAF8041014D0B9F10F0FC9
:1008B80040F238816268A9F10C0323F0070302F0C3
:1008C8000102E0181A434FF0050C0F2B6260C0E9D3
:1008D80001CC00F24681DAF82C30BC689942DAF88B
:1008E8003030626888BFCAF82C10994222F003029F
:1008F80088BFCAF830109EE0621943F0010345F042
:10090800010565603046BA60536000F045F9083467
:10091800204603B0BDE8F08F2344E1685A68A56813
:1009280042F00102E96030468D605A6000F034F907
:100938000834204603B0BDE8F08FDC68A34208BF46
:1009480002303FF4CDAE89E6142B68D9542B00F25F
:10095800A4802B0B03F16F0003F16E0CC300AAE611
:10096800234430465A6842F001025A60083400F0C5
:1009780013F983E6611945F0010E42F00105C4F848
:1009880004E03046C7E90411C1E902CC4D60E250E9
:1009980000F002F9083471E6300400203804002021
:1009A800F0090020E80805F108034FE608F10108FE
:1009B80018F0030F0EF1080E7FF4D0AE52E0194480
:1009C8001C464A68DB6854F8085F42F001024A6036
:1009D8003046EB609D6000F0DFF84FE65A0A042AC3
:1009E80035D9142A7FD802F15C01C9005B3207EBC4
:1009F800010E7958AEF1080E8E4558D04A6822F09B
:100A080003029A4202D989688E45F7D1D1F80CE0E1
:100A18007B68C4E9021ECEF80840CC608CE603F17E
:100A28005C0003F15B0CC30045E6BC427ED0BC68A9
:100A3800626822F003029542A2EB050302D80F2B4D
:100A48003FF75AAF304600F0A7F8002416E69A0997
:100A580002F13901C9003832C9E7D9F8009099453F
:100A680040F0958010F0030FA9F1080300F1FF3062
:100A7800F3D17B6823EA04037B6064009C423FF661
:100A8800ACAE1CB9A9E6640008F104081C42FAD00F
:100A980040465FE608F11008BDE6B3F5AA7F36D8F0
:100AA800EB0B03F1780003F1770CC30003E67B68D6
:100AB80092104FF0010808FA02F213437B60A8E78E
:100AC800D844C8F10002C2F30B0211463046019324
:100AD800009200F063F8431CDDE900237FF4D6AEF2
:100AE80040461A46D2E6542A27D81A0B02F16F015B
:100AF800C9006E327BE7C0F30B03002B7FF4A1AE75
:100B080009EB0803BA6843F001035360E3E640F2D7
:100B1800545293421AD8AB0C03F17D0003F17C0CBC
:100B2800C300C8E50123CBF804308BE7DAF80420CA
:100B380008EB0201CAF8041083E6B2F5AA7F18D8B8
:100B4800DA0B02F17801C900773250E74FF47E736F
:100B58007F204FF07E0CAEE5083B08EB0300002237
:100B680094E604F10801304600F0AEF8DAF8041013
:100B7800B1E640F254518A4205D89A0C02F17D013F
:100B8800C9007C3233E74FF47E717E222FE77B6801
:100B980073E700BF704700BF704700BF38B5074C08
:100BA800002305460846236000F0ECFC431C00D0F7
:100BB80038BD2368002BFBD02B6038BD14240020DF
:100BC800F0B4184C2568D5F8484114B365681F2D52
:100BD80024DC38B9AB1C0135656044F823100020CB
:100BE800F0BC704704EB85060127C6F8882007FA91
:100BF80005F2D4F88871022847EA0207C4F8887118
:100C0800C6F80831E6D1D4F88C311A43C4F88C21DF
:100C1800E0E705F5A674C5F84841D7E74FF0FF307F
:100C2800DEE700BF74570008F8B5244F0C460646A7
:100C3800FFF7B0FFBB685D68C4F57E610F3125F032
:100C48000305294421F47F6121F00F01A1F58054A7
:100C5800B4F5805F07DB00213046FFF79FFFBB68D4
:100C68002B44984204D03046FFF796FF0020F8BD89
:100C780061423046FFF792FF01300DD0104BBA6841
:100C880019682D1B45F001053046091B5560196090
:100C9800FFF782FF0120F8BD00213046FFF77EFFF5
:100CA800BA68831A0F2BDEDD064C0549246843F029
:100CB8000103001B53600860D5E700BF3004002023
:100CC800F409002038080020002953D0F8B50C4654
:100CD8000646FFF75FFF54F804CC714F2CF0010172
:100CE800A4F108056B18B8685A68984222F0030204
:100CF80053D01CF0010F5A6003EB02003BD154F8AB
:100D080008CC4068A5EB0C0507F1080EAC687445E3
:100D1800614400F0010075D0D5F80CC0C4F80CC0CF
:100D2800CCF8084060B341F001036B606950B1F53D
:100D3800007F50D34B0A042B70D88B0903F1390478
:100D4800E40003F1380238193B590838984278D042
:100D58005A6822F003028A4271D99B689842F7D1F7
:100D6800C368C5E902039D60C5603046BDE8F84028
:100D7800FFF712BF7047406800F001000028D2D189
:100D88009868484C1144A04241F0010262D0DB68E7
:100D9800C36098606A606950C9E71CF0010F0A4493
:100DA80007D154F8083CED1A1A44D5E90213CB6070
:100DB80099603D4B1B6842F0010193426960BD6038
:100DC80004D83A4B30461968FFF72EFF3046BDE885
:100DD800F840FFF7E1BEC90878684A1C012389106A
:100DE8008B40034307EBC20157F832007B60083998
:100DF800C5E9020147F83250C5603046BDE8F84001
:100E0800FFF7CABE002845D10A44D3E9021342F0CD
:100E18000100CB6099606860AA50D7E7142B08D905
:100E2800542B1ED80B0B03F16F04E40003F16E0280
:100E380089E703F15C04E40003F15B0283E71846E9
:100E48008EE793107968012202FA03F30B437B6063
:100E5800034686E7C7E90455C5E902006A60695098
:100E6800B4E7B3F5AA7F06D8CB0B03F17804E40006
:100E780003F1770267E740F25452934206D88B0C8D
:100E880003F17D04E40003F17C025CE74FF47E7417
:100E98007E2258E741F001026A60196096E700BFB8
:100EA80030040020380400203C080020F00900200D
:100EB800F0B5002395B0254A01250A934FF48030F8
:100EC8000993022406934FF480011926CDE90B33C8
:100ED800CDE90233CDE90433136C43F08053136436
:100EE800126C1B4B02F080520092009A1A6842F46E
:100EF80040421A604FF4B4721B680795052503F445
:100F08004043089007A80D940193019B11941394F2
:100F180010921295CDE90E1601F0FEFF08B172B6D7
:100F2800FEE703460F274FF4A0564FF48052294698
:100F380002A8039404930297CDE9056202F0BEF972
:100F480008B172B6FEE715B0F0BD00BF0038024028
:100F5800007000402DE9F04F4FF4006091B0FFF7AA
:100F680055FBA54D0446A54E4FF40060DFF8C0A21E
:100F78002C60FFF74BFB30600620CAF80040FFF7F3
:100F880045FB9F4B186000F041FB28683268031D41
:100F98009A4203D2131D9842C0F0AF81C0F34003B8
:100FA800002B00F0A88145F2FF5142F2FF24018096
:100FB80001211480C3F580685B0000246FF0AA2E1D
:100FC8001FFA88F8C5186FF0DD2C13444FEA58074C
:100FD800013445F804EB43F804CBA6B2B742F7D87E
:100FE80028F00104A4B20B19A0459BB207D045F222
:100FF800FF5442F2FF2120F8134022F81310002476
:10100800804DFFF755FF01260C9440210B94224692
:101018000D940F460E940F942B6B7B4843F00203FC
:10102800DFF810822B632B6B03F002030493049BFD
:101038002B6B43F480732B632B6B03F48073059342
:10104800059B2B6B43F080032B632B6B03F0800312
:101058000693069B2B6B43F004032B632B6B03F067
:1010680004030793079B2B6B43F020032B632B6B25
:1010780003F020030893089B2B6B33432B632B6BE4
:1010880033400993099B2B6B43F400732B632B6B41
:1010980003F400730A930A9B01F0B0F9224639461B
:1010A8005A4801F0ABF922460221594801F0A6F945
:1010B8000BA95548CDE90D44CDE90B7601F092F81E
:1010C8000BA95248CDE90B76CDE90D4401F08AF819
:1010D80080230BA94F480B93CDE90C4401F082F80B
:1010E8004D4B0BA94A480B96CDE90C3401F07AF820
:1010F80002230BA946480B930E94CDE90C6401F02A
:1011080071F822462146062000F010FE062000F065
:1011180043FE2B6B2246214643F4800338202B6381
:101128002B6BA5F58C3503F480030393039B00F028
:10113800FDFD382000F030FE4FF480314FF0407252
:10114800364B4046C8F81040C8F8186088F8204068
:10115800C8F82C40C8F80C40C8F81C6088F8304023
:10116800C8F81440C8F80820C8F82830CDE90B445E
:10117800CDE90D44C8E9005100F078FA08B172B61B
:10118800FEE706230D900BA940460C960B9300F042
:10119800F7FC08B172B6FEE7214C4FF223435F22F9
:1011A80020490D90A060A061E360CDE90B002046C6
:1011B800C4E9001202F054F9034608B172B6FEE71A
:1011C8000BA917480B930D9302F01CFB08B172B6DC
:1011D800FEE7154C0646154D03F034FFDFF830B036
:1011E80040464FF48062DAF8001000F0F5FADFF8B4
:1011F8004490DFF82C8021E0280A00202C0A0020E7
:101208002C0B002000380240000802400014024065
:1012180000240240001C0240000031100100000FB1
:10122800DC0A002000140040280B0020240A0020BB
:10123800300A0020340A00202B7823BB21780129AA
:10124800FAD1354F404626703B681B68DB0730D51E
:1012580002F0FCF9314B3A684FF6FE611B681980C1
:101268001846516A2E4A9980062112785A8003F04E
:101278004BFF4FF48062DAF80010484600F0ACFAF1
:101288002B78002BDAD0274B0221584601221E70FA
:1012980001F0B4F8244B4FF400611868DAF8003014
:1012A800834204BF214B186803F02EFFA0B92E70AB
:1012B8009DE7584601F09CF80028BDD101904846AA
:1012C80000F03CFB144B164940461A68019B5362D8
:1012D8000B7002F05FF9AFE70123124F4021144869
:1012E8001A463B7001F08AF800224021104801F0AC
:1012F80085F82E707BE719465CE6831E023A00F2F9
:10130800FE7045F2FF5442F2FF2123F8024F984243
:1013180022F8021FF9D172E6DC0A00202C0B00200B
:10132800300B002040080020280A00202C0A00204A
:1013380000080240184B70B51B78184EBBB13378C3
:10134800ABB9174C174D22682B689A421AD0402126
:101358000022154801F052F82968216001234FF452
:10136800806212483370BDE8704000F035BA01223F
:1013780040210F4801F042F8002240210C4801F0BA
:101388003DF8DEE740210122074801F037F8094B14
:1013980019682160E2E700BF40080020240A002005
:1013A800300A0020280A002000140240340A0020D5
:1013B800000802402C0A002010B5064C01224021EA
:1013C800204601F01BF8204600224021BDE81040CD
:1013D80001F014B80008024072B6FEE70A4B82B06A
:1013E8001A6C42F080521A641A6C02F08052009211
:1013F800009A5A6C42F480425A645B6C03F480434E
:101408000193019B02B07047003802402C4B0268E0
:10141800F0B59A4289B04FF00004CDE90344CDE914
:101428000544079401D009B0F0BD03F58C33064696
:10143800402003275A6C03A9224D42F480725A6453
:101448005A6C02F480720192019A1A6B42F00102FE
:101458001A631B6B039003F001031B480497029364
:10146800029B00F0BFFE4FF48060DFF860C0AF62FF
:101478004FF400514FF400674FF480320423286181
:1014880028466C60AC60EC60EC61C5F800C0C5E94A
:101498000B44C5E90571C5E9082300F0A3FC58B958
:1014A8000022B5631220AE63114600F03FFC122003
:1014B80000F072FC09B0F0BDFFF78EFFF0E700BF47
:1014C800002001407C0A0020000002401064024015
:1014D80002680E4B9A4200D0704703F50933002288
:1014E8003720114610B51C6C82B044F020041C64EF
:1014F8001B6C03F020030193019B00F017FC3720BD
:1015080002B0BDE8104000F047BC00BF0014004026
:10151800FEE700BFFEE700BFFEE700BFFEE700BF33
:10152800FEE700BF704700BF704700BF704700BFAD
:1015380000F078B8034A012013780344137000F0D0
:1015480063BF00BF280B0020014800F03FBA00BF6E
:10155800340A0020034A044813780133137002F058
:1015680099B800BF300B0020DC0A0020014800F0C9
:1015780063BD00BF7C0A0020014800F0FFBF00BF28
:10158800102000200C4A08B5136833B11844694686
:10159800884209D81060184608BD08490B461160F2
:1015A800694618448842F5D9FEF7ECFF0C224FF043
:1015B800FF330260184608BD340B002018240020B1
:1015C800704700BF0E4A4FF47A730E491278B3FB86
:1015D800F2F310B504460868B0FBF3F000F0EAFB3C
:1015E80008B90F2C01D9012010BD002221464FF067
:1015F800FF3000F09BFB044B00201C6010BD00BFB7
:1016080048080020440800204C08002008B50320A2
:1016180000F078FB0020FFF7D5FFFFF7DFFE002082
:1016280008BD00BF034A044B11681B780B441360C4
:10163800704700BF380B002048080020014B18688D
:10164800704700BF380B002038B50446FFF7F6FF97
:101658000546631C02D0044B1B781C44FFF7EEFFC1
:10166800401BA042FAD338BD48080020002800F0EB
:101678009280F8B5056C0446002D00F08280236C3A
:10168800DB0604D50023012084F83C30F8BD236C28
:101698004E4A4F491A4023684E4D42F002022264D6
:1016A8004A6822F440324A604A68606802434A60E5
:1016B8005A68216922F48072D4F808C0E7685A6031
:1016C8005868A66A40EA0120AE425860586820F07F
:1016D80040705860596841EA0C015960996821F4D2
:1016E800006199609A6842EA07029A6055D0996841
:1016F800E06A21F0706199609A6816439E60996863
:1017080021F0405199609A6802439A609968A569E6
:1017180021F0020194F8200099609A6842EA450293
:101728009A60002842D15A6822F400625A60D86A46
:101738000026E56920F4700094F830C06A1E6769D5
:10174800D8623046DD6A45EA0255DD629D6825F4B7
:1017580000759D60996841EA4C219960996821F467
:10176800806199609A6842EA87229A606664236C6D
:1017780023F0030343F001032364002384F83C307F
:10178800F8BDFFF743FE6564236C84F83C50DB0624
:101798003FF578AF7BE7012070479A6822F07062C6
:1017A8009A609A6822F040529A60AFE75868626A75
:1017B80040F40060511E58605A6822F460425A6032
:1017C8005A6842EA41325A60B1E700BFFDEEFFFFB6
:1017D800002301400100000FF0B5044683B000204B
:1017E80094F83C300190012B00F089802568012095
:1017F800AB6884F83C00DE0714D4474B474E1868A2
:10180800AB68A6FB006043F00103800CAB6000EB03
:1018180040000190019B2BB101980138019001987B
:101828000028F9D1A868236C10F0010044D03C4886
:10183800184040F4807020646B68580505D5236C07
:1018480023F4405343F480532364236C13F48053EC
:1018580047D0636C23F006036364A76B1346DFF875
:10186800D8E00A466FF0220C2E482F49002684F84B
:101878003C60F96405F14C01C7E90FE0C5F800C008
:1018880038466F6847F080676F60AF6847F48077C5
:10189800AF6000F043FB254B2268586810F01F002A
:1018A80013D1936813F040530DD19168184641F055
:1018B8008041916003B0F0BD43F010032364636C72
:1018C80043F00103636403B0F0BD19498A420AD0AA
:1018D8005B68DB0602D417498A4213D0002003B0A4
:1018E800F0BD6364B9E7936813F0405F03D1936870
:1018F80043F0804393600D4B00205B68E3E70220D0
:1019080003B0F0BD886810F04050E7D18B6843F011
:1019180080438B60D7E700BF4408002083DE1B4369
:10192800FEF8FFFFC5190008051B00080023014049
:1019380000200140002201401D1B000890F83C30A7
:10194800012B28D0036801219A6822F0010210B502
:1019580080F83C1004469A609868084016D19A6846
:10196800A16B22F480729A6091F83520022A14D073
:101978005968104A21F080615960236C1A4000238D
:1019880042F0010284F83C30226410BD002300209C
:1019980084F83C3010BD02207047084600F004FB74
:1019A80028B1226C236842F040022264E0E72368F1
:1019B800DEE700BFFEEEFFFF704700BF08B5806B93
:1019C800FFF7FAFF08BD00BF704700BF38B50368CE
:1019D80004461A685968900713D58A0611D5226CEF
:1019E800D50603D4226C42F4007222649A6812F07D
:1019F800405F58D02046FFF79DFC23686FF0120225
:101A08001A601A685968520713D50D0611D5226C49
:101A1800D00603D4226C42F4005222649A6812F46D
:101A2800401F22D0204600F06BF923686FF00C02AB
:101A38001A6019685A68500604D5CA0702D51A6888
:101A4800D5074AD41A68596890060DD54A010BD5AE
:101A5800626C6FF02005204642F0020262641D604D
:101A6800FFF7AAFC23681D6038BD9A6B12F4401F6B
:101A78003FD15A685205D5D49A6812F0405FD1D147
:101A8800A269002ACED15A6822F080025A60236CDB
:101A980023F480532364236CDD05C3D4236C43F003
:101AA80001032364BEE7A269002AA3D1DA6A12F40B
:101AB800700F02D09A6850059CD45A6822F0200210
:101AC8005A60236C23F480732364236CD90491D463
:101AD800236C43F0010323648CE7236C204643F412
:101AE80080332364FFF770FF23686FF001021A60E8
:101AF800A8E79A68510595D4BBE700BF08B540220E
:101B0800836B1A6418465A6C42F004025A64FFF751
:101B180053FC08BD836B1A6C12F0500F1A6C10B589
:101B280023D142F4007219681A648A6812F0405F7F
:101B380017D19A69AAB9CA6A12F4700F02D08A68D2
:101B480050050ED44A6822F020024A601A6C22F42A
:101B580080721A641A6CD10403D41A6C42F0010220
:101B68001A641846FFF7E6FB10BDD20604D49B6B37
:101B7800BDE81040DB6C18471846FFF71DFC10BD88
:101B880090F83C300022F0B5012B83B0019200F0B0
:101B98009D800E6801220368B7B2092E80F83C20A8
:101BA80007EB47058A682FD9B6F1004F2CD01E3DA8
:101BB8004FF0070CDC680CFA05FCDFF838E124EA82
:101BC8000C047645DC6000F0848002FA05F5DA68DA
:101BD8001543DD604968062901EB810226D8053ADC
:101BE8001F24596B944007FA02F221EA0401596351
:101BF800596B0A435A633E4A934229D0002380F81E
:101C08003C30184603B0F0BD4FF0070C1C69AA40E1
:101C180049680CFA05F5062924EA05051D611D69C0
:101C280045EA020501EB81021D61D8D90C2938D893
:101C3800A2F123041F25196BA54007FA04F221EA33
:101C4800050119631C6B1443294A93421C63D5D1BF
:101C5800B6F1004F33D0122E40D0264B9E4243D1CE
:101C6800254A244953688E4243F400035360C5D182
:101C780002F14672214B02F52E321B6802F28332C2
:101C8800A2FB03239B0C03EB83035B000193019BE3
:101C9800002BB3D0019B013B0193019B002BF9D191
:101CA800ACE7A2F141011F25DC6A8D4007FA01F279
:101CB80024EA0504DC62D96A0A43DA629BE7D2F8AF
:101CC800043323F44003C2F8043397E7022003B037
:101CD800F0BDDD6845EA0265DD607BE7064A5368CA
:101CE80043F48003536089E7112EB9D086E700BF1B
:101CF8000020014012000010002301404408002089
:101D0800704700BF07490002074BCA6800F4E0604B
:101D180010B44FF6FF04224010BC13431843C860A8
:101D2800704700BF00ED00E00000FA05174BDB68C4
:101D3800C3F3022330B4C3F107051C1D042D28BFCB
:101D48000425062C18D9033B4FF0FF349C4022EAA7
:101D580004044FF0FF32002802FA05F221EA0201DA
:101D680001FA03F242EA04024FEA0212D2B206DB97
:101D7800074B1A5430BC704700242346E9E700F0AB
:101D88000F00044B1A5430BC704700BF00ED00E050
:101D980000E400E014ED00E0002807DB00F01F017C
:101DA80001234009024A8B4042F82030704700BFA7
:101DB80000E100E00138B0F1807F0DD2074B00222E
:101DC800072130B4F025064C5860104684F823509B
:101DD8009A60196030BC70470120704710E000E03D
:101DE80000ED00E0F8B50446FFF728FC002C53D0BE
:101DF800022223680021054684F835201A6884F8F1
:101E0800341022F001021A6005E0FFF717FC401BAE
:101E180005283AD823681A68D107F6D4D4E90120EE
:101E2800E16802431F68D4E904050A430243206AB3
:101E3800D4E906612A43354D32433D400A43616A7D
:101E48000243042942EA050228D01A605A6922F09E
:101E580007021143DAB22E4D5961103A2D492E4826
:101E6800A5FB02521940012513090022C05C032B6F
:101E78004FF03F0388BF0431E06583401046A165F9
:101E88008B60626584F83550F8BD0323202218461C
:101E9800626584F83530F8BD0120F8BDD4E90B51EE
:101EA800A76A45EA010047F0040102431A605A692B
:101EB80022F007021143002DCCD07EB1B6F5005FA9
:101EC80016D0022F03D9032FC4D1EA01C2D50123AA
:101ED80040221846626584F83530F8BD012F03D0DA
:101EE800F3D3022FB6D1F0E7B5F1C07FB2D1EEE758
:101EF800032FAFD801A252F827F000BFD71E000861
:101F0800D31E0008D71E0008F11E00083F8010E00D
:101F1800ABAAAAAA00FCFFFF88570008F0B490F803
:101F28003440012C38D0012590F83540866DAC42FC
:101F380080F8345029D104680227002580F83570CC
:101F4800456587682568402F25F4802525606360EE
:101F580026D0A160E260C16D3F23026C8B40B36064
:101F6800236843F016032360636943F080036361C9
:101F78001AB1236843F0080323602268002342F063
:101F8800010218462260F0BC70470022022380F844
:101F980034201846F0BC70470223F0BC184670473E
:101FA800A260E160D7E700BF70B50446866DFFF711
:101FB80045FB94F83530022B06D0802200230120FF
:101FC800626584F8343070BD23680546216C1A6850
:101FD80022F016021A605A6922F080025A6139B357
:101FE8001A6822F008021A601A6822F001021A60C0
:101FF80005E0FFF723FB401B05280FD823681B6863
:1020080013F00103F5D1E16D3F2218468A40012102
:10201800B26084F8343084F8351070BD0323202171
:1020280000226165184684F8342084F8353070BD84
:10203800A26C002AD4D1D7E7F0B5044683B00020BB
:102048000822664901900E68D4E916739A403D68E3
:102058002A4203D021680868400759D401229A40CF
:102068002A4203D021684969080674D404229A4098
:102078002A4203D021680968890766D410229A4049
:102088002A4203D02168086800074BD420229A40CE
:102098002A4214D021680868C00610D5BA6094F89E
:1020A8003520052A63D00B6813F4802F0B687ED087
:1020B800190340F18980E36B0BB120469847636DA3
:1020C80023B3636DDA071AD522680521444B84F8D7
:1020D8003510A3FB0636136823F00103B60A136014
:1020E80002E01368DB0704D5019B0133B342019377
:1020F800F7D90022012384F8342084F83530E36CC2
:1021080023B1204603B0BDE8F040184703B0F0BD46
:10211800086820F004000860BA60626D42F00102AD
:1021280062659BE7BA600A6812F4802F0A6818D1C2
:10213800D20503D40A6822F008020A60226C002A39
:10214800A4D020469047E36DA0E7BA60626D42F0E4
:102158000402626592E7BA60626D42F0020262654B
:1021680084E71103EAD5A26C002AEAD18EE70A684F
:10217800206C22F016020A604A6922F080024A6145
:1021880038B30A6822F008020A603F2200200121C1
:1021980002FA03F3226DBB6084F8340084F835102A
:1021A800002AB3D0204603B0BDE8F040104713F42E
:1021B800807380D10A68012022F010020A6084F836
:1021C800343084F8350076E7636C002B7FF475AF04
:1021D80075E7A26C002AD4D1D7E700BF44080020D5
:1021E800B5814E1B2DE9F04F884683B00024D1F805
:1021F8000090DFF8F8E103E00134102C00F0B6801D
:102208000123A34009EA03029342F5D1D8F8045008
:102218006700032125F0100CB9400CF1FF33C943C6
:10222800012B10D88668C5F3001306EA010AD8F80E
:102238000C60A340BE4046EA0A068660466826EA65
:10224800020633434360C368BCF1020FD8F8086044
:1022580003EA010306FA07F646EA0306C66015D143
:10226800E30804F0070C4FF00F0BD8F8106000EBF0
:1022780083034FEA8C0CD3F820A00BFA0CFB06FA68
:102288000CF62AEA0B0A46EA0A061E62066805F0F8
:1022980003033140BB40EF0043EA01030360ABD5C1
:1022A800484B24F003064FF00F0C5F6C194606F1FB
:1022B800804604F0030347F4804706F59C369B00EC
:1022C8004F644F6C0CFA03F107F480470197019FA4
:1022D800B76827EA01013C4FB84220D007F580676C
:1022E800B84246D0394FB84248D0394FB8424AD0A0
:1022F800384FB8424CD0384FB84253D0374FB84215
:1023080055D0374FB84248D0364FB84254D0364FE0
:10231800B8420CBF09270A2707FA03F31943B1602B
:10232800D143DEF80030EE0304F1010454BF0B4042
:102338001343AF03CEF80030DEF8043054BF0B402F
:102348001343EE02CEF80430DEF8083054BF0B40D9
:102358001343AD02CEF80830DEF80C3054BF0B4002
:102368001343102CCEF80C307FF44AAF03B0BDE80D
:10237800F08F012707FA03F31943D0E7022707FA7A
:1023880003F31943CBE7032707FA03F31943C6E717
:10239800042707FA03F31943C1E7072707FA03F3EA
:1023A8001943BCE7052707FA03F31943B7E70627DC
:1023B80007FA03F31943B2E7082707FA03F31943A7
:1023C800ADE700BF003802400000024000080240AC
:1023D800000C0240001002400014024000180240A5
:1023E800001C02400020024000240240003C014042
:1023F8000369194214BF01200020704702B909047B
:1024080081617047704700BF044A5169014200D199
:10241800704708B55061FFF7F5FF08BD003C014063
:10242800F0B58BB0002800F08A8090F8BD330446E0
:10243800056803F0FF0243B3284603236F46261DB1
:1024480084F8BD33EB6B254613F4807308BF236112
:1024580001F02CFB55F810EBAC46BCE80F000FC799
:10246800BCE80F000FC79CE8030087E8030070462C
:1024780096E80E0001F02CFA074660B10125022308
:10248800284684F8BD330BB0F0BD80F8BC2302F0B9
:1024980035FF2068D1E70146206801F00FFB60682E
:1024A80060B339464FF0010C3A46C1EBC1034F1CEB
:1024B80004EB830383F83C10A3F84210F9B283F8C5
:1024C8003DC0814283F83F201A65C3E91122ECD34D
:1024D80000221146C2EBC203571C04EB830383F8A6
:1024E800FC21FAB283F8FD11824283F8FF11C3F888
:1024F8000412C3F80812C3F81012EBD36F46D4F8CD
:1025080000C00FCD0FC70FCD0FC795E8030087E8B0
:102518000300604696E80E0001F0E8FA0546002838
:10252800ACD10122636A84F83800934284F8BD2351
:1025380009D0206801F0D0FE28460BB0F0BD012577
:1025480028460BB0F0BD204600F0D0FCF1E700BFF4
:1025580090F8BC33012B0ED0012310B50446006857
:1025680084F8BC3301F09AFA206801F0A5FE002037
:1025780084F8BC0310BD0220704700BF2DE9F04F5E
:10258800066889B00446304601F0E8FE10B109B08B
:10259800BDE8F08F0546206801F0AEFE0028F6D0B1
:1025A800206801F0A9FE10F0020F206803D04369EB
:1025B80003F00203436101F09FFE10F0100F206842
:1025C80011D0836923F010038361376AC7F343434B
:1025D80007F00F08022B7DD0062B00F0AE8283692E
:1025E80043F01003836101F087FE10F4002F206888
:1025F80040F0698101F080FE470300F1A880D4F81B
:1026080000B0584601F078FE0028C0F283802068A8
:1026180001F072FE00054AD4206801F06DFE020147
:1026280013D5226894F8F413536903F000635361D7
:10263800002946D1536D01212046C3F3830384F852
:10264800F413C4F8F83303F021F8206801F054FEBD
:10265800C30400F19181206801F04EFE10F4005F80
:10266800206840F0728101F047FE070700F164819D
:10267800206801F041FEC60200F1D981206801F00E
:102688003BFE850200F1C981206801F035FE40005B
:1026980054D4206801F030FE41077FF578AF2368F5
:1026A8005D686A0711D45A682A435A606FE7D6F8FA
:1026B8000838D9072AD42068436903F400634361C2
:1026C800ABE7204602F0F4FEBFE7204602F018FF11
:1026D8002368E8E747F6F0731F4280D0C8EBC808C4
:1026E800C7F30A17304604EB88083A46D8F80812A8
:1026F80001F062FDD8F80822D8F814323A4420686C
:102708001F44C8F80822C8F8147268E7204602F087
:10271800CFFED0E794F8F413D6F80428012922F064
:102728000102C6F8042800F0DC81204602F0D8FE39
:102738002068436903F00043436169E7204602F0DB
:10274800DBFE2068436903F080434361A2E7206809
:1027580001F0DEFDD4F800B0814600283FF451AF07
:1027680006F51063A0464FF0000A0595CDE903363B
:1027780007E05FEA59090AF1010A08F11C0800F0AC
:10278800608119F0010FF4D05FFA8AF65846314695
:1027980001F0D0FD0546E80718D5049B01270AF08B
:1027A8000F01039AD3F8340807FA01F102EB4A1231
:1027B80020EA01002169C3F83408B94213469F6032
:1027C80000F096813146204602F04EFE290704D5D6
:1027D800039B082203EB4A139A60EA0604D5039B7D
:1027E800102203EB4A139A606B0604D5039B402220
:1027F80003EB4A139A60AF0704D5039B022203EB4D
:102808004A139A6027682D06BB46B2D5D8E9142327
:102818009342AED8D51AD8F8440007F5106185421E
:10282800AC4601EB4A1128BF8446069189690CF130
:10283800030C89B2B1EB9C0F35D3A2B3934232D2C9
:10284800CDF81CA0D8F84810DDF818A00BE0D8F88F
:1028580050209A42A2EB030540F28281002A00F040
:102868007F81D8F844008542324628BF0546207C3F
:10287800ABB20090384601F089FCDAF81820D8F895
:102888004810E81CD8F8543092B229442B44B2EBD3
:10289800900FC8F84810C8F85430D8D2DDF81CA0FA
:1028A800D8F8502027689A4200F25E810BF5006143
:1028B8000AF00F0201204B6BBB4600FA02F223EA32
:1028C80002034B6355E701F01BFD07462068002F04
:1028D8003FF490AE4FF0000806F5306A04E07F0838
:1028E80008F101083FF486AEF907F8D55FFA88FBCE
:1028F800594601F015FD8146206819F0010F40F096
:10290800A38019F0080F40F0C48019F0100F03D00D
:102918000AEB481310229A6019F0200F03D00AEB33
:10292800481320229A6019F4005FD8D00AEB4813A4
:102938004FF400529A60D2E7204602F09FFD2068CB
:10294800436903F00803436193E601F00BFD206837
:1029580001F0CAF92568E06000F07CFD227B0146A1
:10296800284601F01DF8204602F08CFD20684369D6
:1029780003F40053436176E606F500677B68206838
:10298800102123F001037B6001F09CF9606808B313
:1029980006F510634FF67F31996001351A682033C8
:1029A800854222F4001243F8202C53F8202C42F0E0
:1029B800006243F8202CC3F8E811D3F8E02122F490
:1029C8000012C3F8E021D3F8E02142F00062C3F816
:1029D800E021E1D1FB69226B43F00113FB61002A7E
:1029E80075D0D7F8843043F00B03C7F884307B6C7C
:1029F80043F00B037B64D6F8003804F57172217C30
:102A080023F4FE632068C6F8003801F0BFFC206894
:102A1800436903F4805343611EE62046002102F017
:102A280063FD2068436903F4001343612DE62046E3
:102A3800002102F05DFD2068436903F480134361BF
:102A48001DE6DDE90465DCE54FEA4813226900F577
:102A5800306E4FF0010C0AEB0301012A7344C1F8F0
:102A680008C0D0F840C099685AD05E4A94457DD0D5
:102A7800B8F1000F07D1D4F8103223B904F57172F8
:102A8800414601F083FC2046594602F0E3FC2068E9
:102A980037E74FEA481300F530624FF0080C0AEBAD
:102AA80003011344C1F808C0026C4F489968824278
:102AB80031D90A0402D54FF400429A60204602F048
:102AC800C3FC2169012900F0848020681DE77A6928
:102AD80042F22B0313437B613B6943F00B033B61D9
:102AE80089E70021204684F8F41302F0CFFD1FE6A1
:102AF800D8E911231344C8F84830BAF1000F7FF41D
:102B080061AE236D002B7FF45DAE04F57172206811
:102B180001F03CFC56E6204602F096FC2068F4E6FC
:102B28000A072AD5304A94457FF6EBAE09047FF5AB
:102B3800E8AE4FF400429A60E3E6C8EBC808082202
:102B480004F57171304601F037FBC7F30A1304EB43
:102B580088022068D2F814120B44C2F814323EE5F9
:102B6800DDF81CA027689EE6BB4602E60A04E0D40E
:102B7800890688D520229A6085E78A062FD411F025
:102B8800280F7FF4BEAE184A944501D90904D0D461
:102B9800C8EBC802196904EB8203C1F31201D3F828
:102BA8000422A2EB010CD3F808120A44C3F814C299
:102BB800C3F80822B8F1000F7FF465AFD4F81032DB
:102BC800002B7FF460AF04F57172012101F0DEFB88
:102BD80059E704F57172206801F0D8FB75E72022E7
:102BE8009A608EE60A31544F0A30544F90F8BC234D
:102BF800012A0DD0012210B5044684F83810006867
:102C080084F8BC2301F046FB002084F8BC0310BD07
:102C180002207047F8B501F00F040906C4EBC4059B
:102C28004FEA850522D405F5FE71C4EBC4050026DC
:102C380000EB8505014485F8FD614D780C708A60CC
:102C4800CB7005B1CC80022B01D100230B7190F819
:102C5800BC33012B15D004460123006884F8BC332B
:102C680001F04EF8002084F8BC03F8BDC4EBC4069C
:102C780005F13C01012700EB8605014485F83D700C
:102C8800DBE70220F8BD00BF01F00F02090638B5E6
:102C9800C2EBC2034FEA830319D403F5FE71C2EBFA
:102CA800C203002400EB8303014483F8FD410A704A
:102CB80090F8BC33012B19D004460123006884F82E
:102CC800BC3301F05FF8002084F8BC0338BD03F181
:102CD8003C01C2EBC204012500EB8403014483F8E4
:102CE8003D500A7090F8BC33012BE5D1022038BD65
:102CF80070B501F00F0500261C21C5EBC50401FBCA
:102D0800050100EB840401F5FE71C4F80822C4F83B
:102D1800103284F8FC51C4F8146284F8FD61036928
:102D28000068012B08BFC4F80C22DAB21DB101F00B
:102D380087F8002070BD01F09FF9002070BD00BF2A
:102D480001F00F01C1EBC10100EB8101D1F81402C0
:102D5800704700BFF8B501F00F05012600271C21B8
:102D6800C5EBC50401FB050100EB84043C31A264FA
:102D7800236584F83C50676584F83D600369006802
:102D8800B34208BFE264DAB21DB101F059F800207D
:102D9800F8BD01F071F90020F8BD00BF38B54368EF
:102DA80001F00F059D421FD80B061FD4C1EBC103CC
:102DB8001C24002204FB010100EB830301F5FE71D2
:102DC80083F8FD2101230D708B7090F8BC239A4283
:102DD8001ED0044680F8BC33006801F0FFF9CDB17D
:102DE800002084F8BC0338BD012038BD1C21C5EB88
:102DF800C503012201FB050100EB83033C3183F885
:102E08003D2001230D708B7090F8BC239A42E0D1CD
:102E1800022038BD04F57172217C206801F0B6FAF1
:102E2800DEE700BF38B501F00F0243689A4221D8A7
:102E3800C2EBC20309064FEA83031DD403F5FE73F0
:102E4800C2EBC2040025C11800EB840383F8FD51CE
:102E580000250A708D7090F8BC33012B1CD00446F5
:102E68000123006884F8BC3301F0E8F984F8BC5306
:102E7800284638BD012038BDC2EBC2043C330125C9
:102E880000EB8404C11884F83D5000250A708D7049
:102E980090F8BC33012BE2D1022038BD30B405686C
:102EA80012046C6AC1B1AB6A013904EB13440BD04C
:102EB800002303F14000013305EB8000DBB24068DA
:102EC8008B4204EB1044F4D340311443002005EB4B
:102ED80081014C6030BC704714430020AC6230BCA8
:102EE800704700BF036800205962704703680121DA
:102EF800084A30B4C0F8FC1304469969002541F02B
:102F0800006184F8F45328469961596D0A4330BC2E
:102F18005A65704703000010002800F04C810368D0
:102F28002DE9F041DD0782B0044635D5AC498A6801
:102F380002F00C02042A00F0FF808A6802F00C02FA
:102F4800082A00F0F5806368B3F5803F10D0002BA5
:102F580000F01A81B3F5A02FA14B1A6800F0648124
:102F680022F480321A601A6822F480221A6004E07F
:102F78009B4A136843F480331360FEF75FFB984D58
:102F8800064605E0FEF75AFB801B642800F2EF8036
:102F98002B689A03F6D523689F0742D41A0717D5DA
:102FA8006369002B00F0B1808D4B5A6F1D4642F0CB
:102FB80001025A67FEF742FB064605E0FEF73EFBB4
:102FC800801B022800F2D3806B6F9B07F6D523681D
:102FD8005D076BD5824B1A6CD00000F1EE801A6C3D
:102FE800012542F080521A641B6C03F08053019350
:102FF800019B7C4B1A68D10540F1A880A368012B7E
:1030080039D0002B00F0DB80052B754B1A6F00F0D0
:10301800138122F001021A671A6F22F004021A675C
:103028002EE06F4A916811F00C0F63D0916801F09F
:103038000C0108295BD0E368002B00F0E180684BA5
:103048001A681D4642F001021A60FEF7F7FA0646B2
:1030580005E0FEF7F3FA801B022800F288802B684F
:103068009807F6D52B68226923F0F80343EAC203D0
:103078002B60236892E75A4A136F43F001031367E2
:10308800FEF7DCFA564E804641F2883705E0FEF737
:10309800D5FAA0EB0800B84269D8336F9B07F6D57C
:1030A80025B14F4A136C23F080531364A369D3B13D
:1030B8004B4A916801F00C01082900F0C580022BE9
:1030C800136800F0C38023F0807314461360FEF782
:1030D800B5FA054604E0FEF7B1FA401B022846D8C7
:1030E80023689B01F7D4002002B0BDE8F081526844
:1030F8005602A0D43A4A126895073CD5E268012ADC
:1031080039D0012002B0BDE8F081354B5A6F1D4619
:1031180022F001025A67FEF791FA064604E0FEF72C
:103128008DFA801B022822D86B6F9F07F7D44EE7D1
:103138004A6850027FF507AF294A126891037FF564
:103148002BAF6268002A7FF427AFDAE71A681E46B9
:1031580042F480721A60FEF771FA07463368DA059E
:103168003FF54CAFFEF76AFAC01B6428F6D9032076
:1031780002B0BDE8F0811A4920690A6822F0F80215
:1031880042EAC0020A6009E7154B1A681D4622F494
:1031980080321A601A6822F480221A60FEF74EFA0A
:1031A800064604E0FEF74AFA801B6428DFD82B683D
:1031B8009B03F7D4EFE601207047002519E7084B79
:1031C80041F288381A6F1E4622F001021A671A6FF8
:1031D80022F004021A67FEF731FA074609E000BF39
:1031E8000038024000700040FEF728FAC01B404536
:1031F800BDD8336F9807F7D4002D3FF457AF50E789
:103208002D4B1A681D4622F001021A60FEF716FAC5
:10321800064604E0FEF712FA801B0228A7D82B689E
:103228009907F7D42368B9E642F480221A601A682D
:1032380042F480321A60A0E642F004021A671A6F5C
:1032480042F001021A671BE752684CE723F08073CB
:1032580015461360FEF7F2F9064604E0FEF7EEF9AC
:10326800801B022883D82B689901F7D4D4E9073248
:10327800616A1343D4E90A2043EA8113216B520897
:103288000D4C43EA0063013A43EA017343EA0243FF
:103298006B602B6843F080732B60FEF7CFF905460F
:1032A80005E0FEF7CBF9401B02283FF660AF236824
:1032B8009A01F6D517E700BF0038024078B15E4A98
:1032C800136803F00F038B420BD2136823F00F032C
:1032D8000B431360136803F00F038B4201D00120E6
:1032E800704703682DE9F0419D0714D55C0704D5A4
:1032F800524CA26842F4E052A2601A0704D54F4C1F
:10330800A26842F46042A2604C4C8568A26822F030
:10331800F0022A43A260DF0704460D4621D5426821
:10332800464B012A1B6863D0022A79D0990728D511
:10333800424941F288388B680E4623F00303134351
:103348008B60FEF77BF9074604E0FEF777F9C01BB0
:10335800404563D8B368626803F00C03B3EB820F8F
:10336800F3D1354A136803F00F03AB420CD9136845
:1033780023F00F032B431360136803F00F03AB42D2
:1033880002D00120BDE8F08123685A0706D52B49F1
:10339800E0688A6822F4E05202438A601B0707D576
:1033A800264A2169936823F4604343EAC103936082
:1033B80022498B6803F00C03042B1CD0082B2BD15B
:1033C8004A684B6802F03F02496813F480032AD127
:1033D8001B48C1F38811A1FB0001FCF74DFF174BF7
:1033E8005B68C3F3014301335B00B0FBF3F303E015
:1033F8009E039DD4C5E7134B104A134C926813489B
:10340800C2F3031212490068A25CD3400B60FEF7B6
:10341800D9F80020BDE8F081094BEDE70320B1E7BA
:10342800980185D4ADE70748C1F388110023A1FBB3
:103438000001FCF721FFD2E7003C024000380240BF
:103448000024F40040787D01785700084C080020DB
:1034580044080020014B1868704700BF440800204A
:1034680000287BD0F8B590F83D30044603F0FF0201
:10347800002B3BD022680220414E424FB2F1804FD0
:10348800A2EB060684F83D00A2EB07071368B6FA1C
:1034980086F6B7FA87F74FEA56164FEA57172AD033
:1034A8004EBB39498A425BD001F580618A4257D0C8
:1034B80001F580618A4258D0002F56D133498A429B
:1034C8001ED001F580618A421AD001F580618A42D6
:1034D80016D0A1F598318A4212D001F580618A424E
:1034E8000ED001F580618A420ED109E080F83C20B7
:1034F800FDF7EEFFBEE723F07005A06845EA00037C
:1035080023F4407320690343A16923F08003E06832
:103518000B4361681360D0629162E6B9DFB9012399
:103528000020536184F8483084F83E3084F83F30F6
:1035380084F8403084F8413084F8423084F84330CD
:1035480084F8443084F8453084F8463084F84730AD
:1035580084F83D30F8BD63691363E0E701207047E4
:1035680023F07003A1680B43CAE7094923F07003ED
:10357800A0688A4243EA0003C2D0002FC0D19DE769
:1035880000000140000401400004004000400140E8
:10359800000C004090F83D30012B01D0012070470D
:1035A8000268244B2449B2F1804F18BF9A4230B4C4
:1035B8000CBF01230023214C0225A24208BF43F07F
:1035C800010380F83D501E4D04F580348A4208BF3F
:1035D80043F001031B48D168AA4208BF43F0010326
:1035E80041F00101A24208BF43F00103D1608242C9
:1035F80008BF43F0010333B9A0F59430101AB0FAAC
:1036080080F0400988B191680F4B0B40062B09D018
:10361800B3F5803F06D01368002043F00103136020
:1036280030BC7047002030BC7047136843F001037A
:103638001360F5E700000140000800400004004066
:10364800000C00400040014007000100014641F223
:1036580011100B68DA6822F00102DA601A6A024275
:1036680008D1186A40F24442104203D11A6822F085
:1036780001021A600123002081F83D30704700BF25
:10368800704700BF704700BF704700BF704700BF5A
:10369800704700BF03681A69910710B5044602D540
:1036A800DA68920768D41A69520702D5DA685007AF
:1036B8004FD41A69110702D5DA68120737D41A6984
:1036C800D00602D5DA68D1061ED41A69D20702D507
:1036D800DA68D00769D41A69110602D5DA681206C1
:1036E8006BD41A69D00502D5DA6811066DD41A6947
:1036F800520602D5DA6850066FD41A69910602D5C7
:10370800DA68920649D410BD6FF0100108222046ED
:103718001961DB69227713F4407F6FD1FFF7B2FF9D
:103728002046FFF7B3FF002223682277CDE76FF02A
:103738000801042220461961DB6922779B075AD1C8
:10374800FFF7A0FF2046FFF7A1FF0022236822779A
:10375800B5E76FF004010222204619619B692277C0
:1037680013F4407F44D1FFF78DFF2046FFF78EFF0B
:103778000022236822779CE76FF002010122196179
:103788009B690277990730D1FFF77CFF2046FFF746
:103798007DFF00222368227785E76FF0200220460C
:1037A8001A61BDE8104000F08DB86FF001022046A4
:1037B8001A61FFF765FF23688DE76FF080022046E6
:1037C8001A6100F081F823688BE76FF48072204655
:1037D8001A6100F07BF8236889E76FF04002204601
:1037E8001A61FFF755FF236887E7FFF74DFFD0E71A
:1037F800FFF74AFFBCE7FFF747FFA6E7FFF744FFDD
:1038080091E700BF90F83C30012B4BD00368274A62
:10381800F0B4274E02250124934218BFB34280F822
:103828003D5080F83C4008BF01265C6818BF002660
:103838009D6803D124F470044A6814431D4A24F097
:1038480070040F68934218BFB3F1804FDFF870C05F
:1038580044EA0704184F0CBF012200225C6063454C
:1038680008BF42F00102154CBB4208BF42F00102FA
:1038780007F59A37BB4208BF42F00102A34208BFCE
:1038880042F0010202B926B18A6825F08005154385
:103898009D600023012280F83C3080F83D201846C6
:1038A800F0BC704702221046704700BF0004014078
:1038B8000000014000040040000C004000180040D7
:1038C80000080040704700BF704700BF704700BF46
:1038D80084B030B4089D03AC012D84E80E0031D1CA
:1038E800826B2D4B22F480320F9982630129C268C2
:1038F80003EA0203C360C36823F44013C3603DD0E6
:10390800264B01E0013B3ED00269002AFADA03693E
:10391800224A43F00103036101E0013A33D003690D
:1039280013F00103F9D1069A012A07D1826842F0FF
:1039380006028260826842F020028260184630BC2B
:1039480004B07047C268154B42F04002C26001E003
:10395800013B1AD00269002AFADA03690F4A43F0D8
:103968000103036101E0013A0FD0036913F0010379
:10397800F9D1826B42F480328263D4E7C36843F49E
:103988008013C360BCE70323CDE7826B032342F4B3
:1039980080328263C7E700BFBFFFBDFF400D030051
:1039A800022A034610B40BD04FF41054D9680020F3
:1039B80021F47051D960DA68224310BCDA6070478C
:1039C800284A29480A4482423AD9284A28480A44B7
:1039D800824232D9274A28480A44824233D9274AA0
:1039E80000F5C3300A44A03082422FD9244A254822
:1039F8000A4482422DD9244A00F592200A4400F54F
:103A08007870824228D9214A00F5C3200A4400F57B
:103A180020708242C8D91E4A00F5B7100A4400F542
:103A2800587082421BD91B4A1B4C0A44A2428CBFC5
:103A38004FF4C0544FF4E054B8E74FF46054B5E77E
:103A48004FF47054B2E74FF45054AFE74FF440547A
:103A5800ACE74FF43054A9E74FF42054A6E74FF4ED
:103A68000054A3E7405327FFFF340C00401E1BFF00
:103A78003F420F0000DC0BFF7F4F1200808CF9FEE5
:103A880060B6E5FE5FE3160000D3CEFEC05BB3FE72
:103A980000CA91FEE05459FEDF9C41000246002016
:103AA800936843F001039360704700BF024600200B
:103AB800936823F001039360704700BF08B5C3689B
:103AC800012923F0C043C3600BD041B9C36843F058
:103AD8008043C3603220FDF7B7FD002008BD0120F8
:103AE80008BDC36843F00053C360F3E784B08C4655
:103AF8002DE9F043129E044608AF002004F5006546
:103B0800C4F80401C4F80801C4F80C01C4F8100191
:103B1800C4F81401C4F81801C4F81C01C4F8200141
:103B2800C4F82401C4F82801C4F82C01C4F83001F1
:103B3800C4F83401C4F83801C4F83C0187E80E0021
:103B48000D9B0A99002E57D16A6842F002026A60FA
:103B5800A26B22F40012A263226842F040022260A3
:103B6800226842F0800222600022012BC4F8002E55
:103B7800D4F80028C4F8002800F08980032BD4F872
:103B880000383ED043F00303C4F800384FF4846291
:103B9800494B226102E0013B00F08380206910F06C
:103BA8002000F8D11022444B226101E0013B7AD079
:103BB8002269D206FAD400222A616A61EA61BCF15C
:103BC800000F25D004F510634FF090484FF00069BE
:103BD80017464FF67F3E07E01F6001321F61C3F8AA
:103BE80008E02033624536D019680029F4DA002A43
:103BF8005ED0C3F80080F0E7A26B42F40012A26323
:103C0800B2E70029C0D043F00103C4F80038BDE78B
:103C18002B6900276FF080410B9A23F480732B6186
:103C2800A76161611AB9A36943F01003A361A1698F
:103C3800224B0E9A0B43A3611AB1A36943F0080300
:103C4800A361012E03D1A2691D4B1343A361BDE8F3
:103C5800F04304B07047002104F530634FF09048FA
:103C68004FF000698C464FF67F3E09E0C3F800C06C
:103C78000131C3F810C0C3F808E020339142C7D01F
:103C88001F68002FF2DA81B1C3F80080F0E7D4F89A
:103C9800003800293FF478AF43F00103C4F8003836
:103CA80074E701207EE7012085E7C3F80090DFE78D
:103CB800C3F8009091E700BF400D030000383C8036
:103CC800040000408901074A41F02001016101E038
:103CD800013A05D0036913F02003F9D1184670475B
:103CE80003207047400D0300D0F8083813F0060091
:103CF80004D013F0020F14BF02200F20704700BF3A
:103D080070B40A7801234D7800F5006402F00F06BC
:103D180000EB4210012D03FA06F317D0E26942EADC
:103D28000343E361D0F8003B1B040CD48A68144BAE
:103D3800C2F30A02CC78D0F8001B134343EA844349
:103D48000B43C0F8003B002070BC7047E5692B436B
:103D5800E361D0F800391C04F5D48C68084BC4F32F
:103D68000A04CD78D0F80019234343EA854343EA8F
:103D780082520A4370BCC0F800290020704700BF77
:103D88000080001010B40B78497800EB4312012929
:103D980029D0D2F8001B002918DB03F00F014FF4DB
:103DA8008033254C8B40D0F83C18DB431940C0F8D1
:103DB8003C18D0F81C180B40C0F81C380020D2F86A
:103DC800003B1C40C2F8004B10BC7047D2F8001BE7
:103DD80041F00061C2F8001BD2F8001B41F080419D
:103DE800C2F8001BD9E7D2F8001900290BDAD2F87B
:103DF800001941F00061C2F80019D2F8001941F029
:103E08008041C2F8001903F00F0401230B49A340B5
:103E1800D0F83C48DB431C40C0F83C48D0F81C486C
:103E2800234010BCC0F81C380020D2F800391940D3
:103E3800C2F80019704700BF0078F3EF007833EC40
:103E48002DE9F04F91F801C00F78BCF1010F4B69D3
:103E580000EB4715CE7855D005F53067DFF814E24A
:103E6800D7F810C0814C0CEA0E0ED1F808C0C7F87C
:103E780010E0D7F810E00EEA04043C618BB303EBC2
:103E88000C047B4BD7F81080012A04F1FF34B4FBF3
:103E9800FCF403EAC44EA4B24EEA080E0CFB04F389
:103EA800C7F810E03C69C3F3120343EA04033B611B
:103EB80023D0012E0CD1D0F8083813F4807FD5F820
:103EC800003B0CBF43F0005343F08053C5F8003B60
:103ED800D5F8003B43F00443C5F8003B0020BDE89B
:103EE800F08F3C69CCF31203012A43EA04033B61D7
:103EF8003B6943F400233B61DBD1CB68002BD8D06E
:103F08007B61D6E705F51064F3B3D1F80890C3F3E5
:103F1800120ED4F810A0012E09EB0308DFF854B1F3
:103F280008F1FF380AEA0B0BDFF840A1C4F810B01B
:103F3800D4F810B0B8FBF9F90BEA0A0ADFF83081B7
:103F4800C4F810A008EAC948D4F8109048EA09084B
:103F5800C4F81080D4F810804EEA080EC4F810E0B7
:103F680054D0012A60D0D5F8003907F00F0743F084
:103F780004430CFA07FCC5F80039D0F834784CEA49
:103F88000707C0F83478A9E7D4F81080012ADFF8C9
:103F9800DCE0DFF8E0C008EA0E0EC4F810E0D4F860
:103FA80010E04EF4002EC4F810E0D4F810E00EEA49
:103FB8000C0CC4F810C037D0D5F80049012E44F0D5
:103FC8000444C5F8004989D1D0F8084814F4807F22
:103FD800D5F800490CBF44F0005444F08054C5F8AB
:103FE8000049002A7FF47AAF9BB203339A083FF462
:103FF80075AFCB6800EB073003EB820200F5805009
:1040080053F8041B93420160FAD167E7D4F810C053
:10401800012A2CF0C04CC4F810C0D4F810C04CF0E1
:10402800005CC4F810C01AD10B6903B16361012E9A
:104038000CD1D0F8083813F4807FD5F800390CBFBC
:1040480043F0005343F08053C5F80039D5F80039E0
:10405800002043F00443C5F80039BDE8F08FD5F8D7
:10406800004944F00444C5F80049ADE7FFFF07E004
:104078000000F81F0000F8FF4B78F0B5012B0D7811
:104088004F6900EB451425D004F530633D4E18699F
:104098003D4D064088681E611E6935401D6107B1A7
:1040A80048611D69C0F31200012A45F400251D610D
:1040B8001D6940EA0500186107D0D4F8003B43F0B9
:1040C8000443C4F8003B0020F0BDCA68002AF4D0BD
:1040D8005A61F2E704F51063BFB3D3F810E0DFF8D4
:1040E800A4C0294E0EEA0C0CD1F808E0C3F810C0A1
:1040F800BE45D3F810C00CEA06061E6102D2774608
:10410800C1F814E0D3F810C0C7F31206012A4CF422
:10411800002CC3F810C0D3F810C046EA0C061E6184
:104128002BD0D4F8003943F00443C4F80039002FE9
:10413800C9D0012305F00F05D0F8342803FA05F596
:104148001543C0F834580020F0BD1E69012A0E4DF1
:104158000C4805EA06051D611D6945F400251D6129
:104168001D6900EA0500186107D0D4F8003900205D
:1041780043F00443C4F80039F0BD0A69002AF4D0BA
:104188005A61F2E70000F8FFFFFF07E010B49DF85E
:1041980004406CB903339B080AD000EB023001EBF2
:1041A800830300F5805051F8042B8B420260FAD14A
:1041B800002010BC704700BF033292080CD001EBFE
:1041C800820210B400F580540846236840F8043B86
:1041D8008242FAD110BC7047084670470B784A787B
:1041E80000EB4310003318BF0123012A12D0D0F886
:1041F800002B002A06DB2BB1D0F8003B23F08043CC
:10420800C0F8003BD0F8003B43F40013C0F8003B73
:1042180000207047D0F80029002A06DB2BB1D0F81F
:10422800003923F08043C0F80039D0F8003943F44E
:104238000013C0F800390020704700BFCB780A7817
:104248004978023B00EB42100129DBB211D0D0F8CB
:10425800002B012B22F40012C0F8002B01D90020FA
:104268007047D0F8003B43F08053C0F8003B002073
:104278007047D0F80029012B22F40012C0F8002959
:10428800EDD8D0F8003943F08053C0F80039002049
:10429800704700BF034609010020D3F8002801F445
:1042A800FE6122F4FE62C3F80028D3F80028114307
:1042B800C3F80018704700BF03460020D3F8002E4B
:1042C80003F5006122F00302C3F8002ED3F8043886
:1042D80023F002034B60704703460020D3F8002EFA
:1042E80003F5006122F00302C3F8002ED3F8043866
:1042F80043F002034B607047426980691040704781
:10430800D0F8183800F50060C0691840000C7047F4
:10431800D0F8183800F50060C069184080B27047BE
:1043280000EB411100F50060D1F8082B40691040FE
:10433800704700BF00F5006200EB411010B401F0B7
:104348000F041169536B00F51060E340806810BCDE
:10435800DB01DBB20B431840704700BF406900F037
:10436800010070470346084A002003F5006110B4B5
:10437800D3F80049224010BCC3F80029D3F8043808
:1043880043F480734B60704700F8FFFF30B4124C61
:1043980000F53063056CA54203D9D0F8004B002C1A
:1043A80016DB002401291C611C6944F400241C61EB
:1043B8001C6944F018041C611C6944F0C0441C6169
:1043C80006D15A61D0F8003B43F08023C0F8003B87
:1043D800002030BC704700BF0A30544FD0F8C032BC
:1043E80083B110B5D0F8BC4294F80002FF2807D07A
:1043F8009B68214694F801229847FF2384F80032ED
:10440800002010BD002070474323038000487047F8
:10441800880800204323038000487047CC08002008
:1044280043230380004870471C0900200A230380A7
:10443800004870471009002038B5D0F8BC4274B164
:10444800054601F01FF904F50371D5F8C032C4F828
:104458000C02DB68D4F804029847002038BD03201A
:1044680038BD00BFF8B5D0F8BC72A7B101EB810523
:1044780003460A4600EB8505AE6976B9D3F8C03223
:10448800002407F50471D7F808021B69C7F814421D
:1044980098472046F8BD0320F8BDC1EBC10CD0F801
:1044A800C44204EB8C04D4F844C0B6FBFCF40CFB07
:1044B8001464002CE2D1AC612346224601F0C6F810
:1044C8002046F8BD2DE9F0410B7882B000270C4654
:1044D80013F060020646D0F8BC828DF80570ADF87E
:1044E80006701CD0202A12D1CD8891F801C0002D69
:1044F80047D1D0F8C0322A4660469B68984728467C
:1045080002B0BDE8F08190F89C32032B49D03046C8
:10451800214600F01FFD032002B0BDE8F0814B7872
:104528000B2BF4D801A252F823F000BF0F45000866
:104538006D4500081745000817450008174500088D
:1045480017450008174500081745000817450008D3
:1045580017450008754500086545000890F89C3225
:10456800032BD4D1002002B0BDE8F08190F89C3232
:10457800032BCCD101220DF1050100F01DFD002017
:10458800CAE71B0614D5D0F8C0322A466046414611
:104598009B689847E2884146304600F00DFD384652
:1045A800BAE702220DF1060100F006FD0020B3E78C
:1045B80088F800C22A4688F80152414600F012FDE8
:1045C8003846A9E738B504460025812100F0F2FFF6
:1045D80001212587204600F0EDFFA4F878512046F8
:1045E800822100F0E7FFD4F8BC32E5644BB1D4F87F
:1045F800C0325B689847D4F8BC02FCF70FF8C4F8DF
:10460800BC52002038BD00BF2DE9F04104464FF4EC
:104618000770FBF7FBFF054600284AD0237C0126DC
:10462800C4F8BC0293B3402381210222204600F043
:10463800AFFF3146402326870222204600F0A8FF1C
:10464800102303228221A4F878612046A4F84E3072
:10465800082300F09DFF0127D4F8C0320026A4F8F3
:104668004C701B68984794F81080C5F81462394656
:10467800C5F818622046D5F80422B8F1000F11D009
:10468800402300F0F1FF3046BDE8F0814FF400739D
:1046980081210222204600F07BFF268731464FF415
:1046A8000073C9E74FF4007300F0DEFF4046BDE831
:1046B800F081C4F8BC020220BDE8F08119B1C0F84D
:1046C800C012002070470320704700BFD0F8BC32EA
:1046D8000020C3F80812C3F810227047D0F8BC3283
:1046E8000020C3F804127047D0F8BC229AB138B53C
:1046F800D2F814420CB1012038BDD2F8105201236F
:104708008121C2F814322B46C562D2F8082200F083
:104718009DFF204638BD0320704700BFD0F8BC225B
:104728008AB1D2F8042210B5047C2CB140230121AF
:1047380000F09AFF002010BD4FF40073012100F033
:1047480093FF204610BD0320704700BF0346A8B161
:10475800D0F8B80210B10020C3F8B802D3F8CC02E0
:1047680010B10020C3F8CC0209B1C3F8B41201217A
:104778001A70184683F89C1200F0C6BE03207047D2
:1047880030B5002483B0ADF8064059B10546C0F8ED
:10479800B8128B6A0DF106009847C5F8CC0220467E
:1047A80003B030BD0324FAE700F0E4BED0F8B83215
:1047B8000BB11B6818470320704700BF08B5D0F835
:1047C800B8320BB15B689847002008BD38B500F2D5
:1047D800AA250446284600F0A9FB94F8AA1201204D
:1047E800B4F8B02201F01F03C4F894028342C4F85D
:1047F800982215D00ED3022B05D129462046BDE8B4
:10480800384000F0F5BA204601F08001BDE8384094
:1048180000F0DEBE29462046BDE8384000F0FEB86C
:1048280029462046BDE8384000F0AABA70B50446CB
:1048380031B90D46D0F8941203290CD0002070BD70
:10484800D0F8B8229269DAB190F89C32032B17D1CC
:10485800BDE8704010471146D0F85C31D0F86021AF
:1048680093420FD8D0F8B8321B6923B190F89C2234
:10487800032A00D19847204600F0CCFB0020DEE751
:10488800032070BD9B1A9A42C0F85C3128BF1A46B3
:1048980000F0B8FB284670BD70B5044682B051B927
:1048A800D0F89452022D16D094F8A0320020012B93
:1048B8000DD002B070BDD0F8B8325B693BB390F848
:1048C8009C22032A23D102B0BDE87040184784F81F
:1048D800A00202B070BDD0E90756B5421AD827D059
:1048E800D4F8B832DB682BB194F89C22032A01D1A2
:1048F800204698478021204600F06AFE204600F0B6
:1049080095FB94F8A0320020012BD2D1DFE70320D9
:1049180002B070BDAD1B01911146C5612A4600F079
:1049280059FB019B20461A46194600F09DFEBBE73D
:1049380082699542D4D8D0F89852AA42D0D20A4671
:10494800019100F047FB019B2046C4F898321A46B3
:10495800194600F089FEA7E700210122D0F8BC32F1
:1049680070B5044680F89C22C0F894124160C0F8E3
:10497800A4121BB1D0F8B8325B68984740250022D2
:10498800012620462B46114600F002FEA4F8646179
:10499800C4F860512B4600228021204600F0F8FD23
:1049A800A6842562002070BD01740020704700BFF6
:1049B80003460421002093F89C2283F89C1283F874
:1049C8009D22704790F89C32042B03D190F89D32B9
:1049D80080F89C320020704790F89C22032A01D06E
:1049E8000020704708B5D0F8B832DB6903B19847A2
:1049F800002008BD00207047002070470020704745
:104A08000121D0F8B82280F89C122AB152680179A5
:104A180008B59047002008BD0020704770B50B7896
:104A280082B00D46044603F06003202B28D0402BAB
:104A380026D05BB18021204600F0CAFD0021204627
:104A48000D4600F0C5FD284602B070BD4B78092B15
:104A5800F0D801A252F823F0FF4A00082D4B0008B5
:104A68003D4A0008494B00083D4A0008554B0008DC
:104A7800974B00083D4A0008BB4B00089D4A0008B8
:104A8800D4F8B832294620469B68984705462846F8
:104A980002B070BD8978AE4E0129317000F21481E0
:104AA80090F89C32022B00F01C81032B40F02A81E5
:104AB800002900F04F814168012900F03081C9B216
:104AC800FFF77CFE317820466160FFF76FFE0546F0
:104AD800002800F024818021204600F079FD002183
:104AE800204600F075FD21792046FFF767FE022376
:104AF80084F89C32A7E790F89C320322013B022BF2
:104B080098D8CB88022B95D10121D0F8A432C16066
:104B180003B1C260022204F10C012046002500F016
:104B28004BFA90E790F89C32013B022B82D84B88D5
:104B38000025012B87D1C0F8A45200F06BFA82E758
:104B48004B88012B00F0F08000257CE78B88002B38
:104B58007FF470AFCE88002E7FF46CAF4D887F2D28
:104B68003FF668AF90F89C32032B3FF463AFE9B28D
:104B780080F89E1200F05CFD204600F04BFA002DF4
:104B880000F0FA800223354684F89C325BE74A88B5
:104B98000021130AADF80610013B0E2B6DD8DFE893
:104BA80003F0535B376C6C4A3F6C6C6C6C6C6C6CD0
:104BB8001C00CA88012A7FF43DAF90F89C32002B74
:104BC8003FF438AF022B40F2B580032B7FF432AFAD
:104BD800011D002500F0F0F935E7D0F8B432DB69A3
:104BE800002B4AD00DF10601207C9847EB88002B5A
:104BF80073D0BDF80620002A3FD0934201462046D4
:104C080028BF13461A46ADF8063000F0D5F99BE7E1
:104C1800D2B2052A31D8DFE802F02B514B453F3993
:104C2800037C53BBD0F8B8320DF106001B6B9847D4
:104C380007234370DAE7037CFBB9D0F8B8320DF1EB
:104C480006005B6B9847D1E7D0F8B4320DF1060146
:104C5800007C1B689847C9E7027CD0F8B832002A64
:104C68006FD19B6A0DF10600984702234370BDE798
:104C7800D0F8B4325B68002BB4D18021204600F014
:104C8800A7FC2046002100F0A3FC5DE7D0F8B43271
:104C98009B69002BA6D1F0E7D0F8B4325B69002BF2
:104CA800A0D1EAE7D0F8B4321B69002B9AD1E4E727
:104CB800D0F8B432DB68002B94D1DEE7D0F8B432F8
:104CC8009B68002B8ED1D8E78021032500F080FC5B
:104CD8002046002100F07CFCB5E6204600F09AF959
:104CE80032E7E1B101214160FFF760FD0546002888
:104CF8003BD08021204600F06BFC2046002100F0CC
:104D080067FCA0E68021032500F062FC0021204614
:104D180000F05EFC31782046FFF750FD93E6204610
:104D2800002500F077F98EE6C0F8A432002500F0DF
:104D380071F988E60025014641F8085F00F03CF962
:104D480081E6DB6A0DF106009847022343704DE7C0
:104D58003C0B0020022341600D4680F89C32FFF78F
:104D68002DFD204600F056F96DE6204600F052F978
:104D7800032384F89C3266E6012384F89C3262E6B9
:104D880070B50B780D46044603F06003202B0DD058
:104D9800402B0BD053B100268021204600F018FC90
:104DA8002046314600F014FC304670BD94F89C3221
:104DB800013B022BEFD82B79012B0FD8D4F8B8324E
:104DC800294620469B689847EB880646002BEBD17E
:104DD8000028E9D1204600F01DF9E5E780212046AA
:104DE80000F0F6FB002120460E4600F0F1FBDBE761
:104DF80070B50B78054603F06003202B27D0402BB5
:104E080025D00C464BB18021284600F0E1FB28460E
:104E1800002100F0DDFB002070BD4B788A88012B53
:104E2800D1B23DD01AD3032BEDD190F89C32022B8E
:104E38004DD0032BE7D163882BB94A0603D0E3880A
:104E48000BB900F0C5FB284600F0E4F8E3E7D5F815
:104E5800B83228469B68BDE87040184790F89C32E5
:104E6800022B3DD0032BCED101F00F03120603EB2A
:104E7800830300EB830345D4B3F86431002BC2D01D
:104E880001F07F03142404FB030404F5AA74002B27
:104E980044D1236021462846022200F08DF8BAE763
:104EA80090F89C32022B12D0032BACD16388002BD4
:104EB800B1D14E0601D000F099FB284600F0AAF8BF
:104EC800D5F8B832214628469B689847A3E74B0691
:104ED80099D000F07DFB2846802100F079FB9AE705
:104EE800480690D111064FF0000428464FF0020200
:104EF8004CBF05F1140305F5AA7319461C6000F0B0
:104F08005BF888E79B8C002B3FF47DAF01F07F03B3
:104F18005C1C04EB840400EB8404B8E7284600F02A
:104F280073FB08B10123B4E72060B3E70B78037083
:104F38004B784370CA788B7843EA022343804A79D6
:104F48000B7943EA02238380CA798B7943EA0223E7
:104F5800C380704710B50446802100F039FB00215A
:104F68002046BDE8104000F033BB00BF00B3037813
:104F780030B4F3B104460023013314F8015FDBB207
:104F8800002DF9D15B000233032413800B704C70A1
:104F980004785CB1022300255A1CCC540233D2B2E7
:104FA800DBB28D5410F8014F002CF5D130BC70479E
:104FB80070470223E8E700BF70B5154602260A4687
:104FC800002185612B46C561C0F8946200F03EFB64
:104FD800002070BD08B513460A46002100F036FBD4
:104FE800002008BD70B5154603260A460021C0F802
:104FF80058512B46C0F85C51C0F8946200F034FB5D
:10500800002070BD08B513460A46002100F02CFBAD
:10501800002008BD08B504220023C0F894221946D0
:105028001A4600F013FB002008BD00BF08B5052292
:105038000023C0F8942219461A4600F015FB0020F8
:1050480008BD00BF08B5012210491148FFF77EFBD3
:10505800C0B910490E48FFF793FB80B90E490C48B8
:10506800FFF72CFB40B90A48FFF79EFB00B908BDC3
:10507800BDE80840FCF7B0B9FCF7AEF9F3E7FCF778
:10508800ABF9EBE7FCF7A8F9E3E700BF74090020E8
:10509800400B0020500800206009002000207047C5
:1050A8000020704710B5054B012400220221044856
:1050B8001C70FDF7A3F9002010BD00BF40080020B8
:1050C8000024024010B5054C01462046FFF706FBB8
:1050D8002046FFF723FB002010BD00BF400B002037
:1050E80010B5064C002206492046FFF7EFFA204685
:1050F8000449FFF7F3FA002010BD00BF400B002061
:1051080010160020100E002010B5094CD4F8BC323F
:10511800D3F814320BB1012010BD0A4601462046CF
:10512800FFF7D4FA2046BDE81040FFF7DDBA00BF0C
:10513800400B0020122301480B807047A009002073
:10514800042301480B807047B40900200C23014850
:105158000B8070479409002010B5044C0A46044897
:105168002146FFF703FF204610BD00BF101E002098
:10517800AC57000810B5044C0A4604482146FFF70E
:10518800F5FE204610BD00BF101E0020C0570008C5
:1051980010B5044C0A4604482146FFF7E7FE2046AE
:1051A80010BD00BF101E00209057000810B5044C19
:1051B8000A4604482146FFF7D9FE204610BD00BF25
:1051C800101E00209C570008484A1A20484B1268B5
:1051D8001B680880D21801D146487047130F46490A
:1051E800D8B2092B434B94BF30303730096810B41C
:1051F80098700024C2F30360DC700928C4B2C2F3BB
:10520800035094BF3034373409281C714FF0000420
:105218005C71C4B2C2F3034094BF303437340928F8
:105228009C714FF00004DC71C4B2C2F3033094BF28
:105238003034373409281C724FF000045C72C4B251
:10524800C2F3032094BF3034373409289C724FF0DE
:105258000004DC72C4B2C2F3031002F00F0294BF60
:105268003034373409281C734FF000045C73C4B21F
:10527800D0B294BF30343734092A4FEA11729C7384
:105288004FF0000494BF30303730092ADC731874AB
:105298004FF000005874D0B2C1F3036294BF3030AD
:1052A8003730092A98744FF00000D874D0B2C1F38F
:1052B8000352C1F3034194BF30303730092A1875BF
:1052C8004FF000005875D0B2CAB294BF30303730B2
:1052D800092998754FF0000094BF30323732D875DD
:1052E8001A76002203485A7610BC704720F4F01F43
:1052F80028F4F01FB809002024F4F01F02684B4B73
:105308002DE9F0419A428CB04FF00004CDE90744F2
:10531800CDE909440B9402D00CB0BDE8F081444DAE
:105328004FF0020843F6234203272B6B0A2607A9EE
:10533800404843EA08032B632B6B03EA08030093F6
:10534800009B2B6B43F480732B632B6B03F48073EC
:105358000193019B2B6B43F080032B632B6B03F0B2
:1053680080030293029B2B6B43F004032B632B6B8C
:1053780003F004030393039B2B6B43F001032B639C
:105388002B6B079203F00103CDF820800A97049352
:10539800049B0B96FCF726FF4FF4006307A92648E9
:1053A8000793CDF820800994CDE90A76FCF71AFF17
:1053B800102307A921480793CDF820800994CDE947
:1053C8000A76FCF70FFF012307A91D480793CDF8BC
:1053D80020800994CDE90A76FCF704FF282307A961
:1053E80018480793CDF820800994CDE90A76FCF790
:1053F800F9FE2B6B2246214643F000534D202B63C8
:105408002B6B03F000530593059B2B6B43F08043F4
:105418002B632B6B03F080430693069BFCF786FCFB
:105428004D20FCF7B9FC0CB0BDE8F0810000044049
:10543800003802400004024000200240001C0240E4
:10544800000802400000024000F57171D0F8000425
:10545800FFF7BCB9C1EBC10300EB8303D0F800042C
:10546800D3F80822FFF7E2B9C1EBC10300EB8303CD
:10547800D0F800049A6CFFF70FBA00BFD0F8000408
:10548800FFF7AABAC16810B5044621B102290CD0A9
:10549800FBF7A2FF0121D4F80004FFF785FAD4F83E
:1054A8000004BDE81040FFF757BA0121F3E700BF39
:1054B80010B50446D0F80004FFF77AFA2268D2F84B
:1054C800003E43F00103C2F8003E236A23B1034AB9
:1054D800136943F00603136110BD00BF00ED00E03F
:1054E800D0F80004FFF76EBAD0F80004FFF784BACA
:1054F800D0F80004FFF77EBAD0F80004FFF77EBAB0
:10550800D0F80004FFF77CBA0278012A01D0002005
:10551800704738B5154B00210924154DC3F8000410
:10552800C0F8C43218469A6159625963C3E90054F5
:10553800C3E90311C3E90711C3E90B11FCF770FFB5
:1055480088B94FF400710948FDF7CCFC802200218E
:105558000648FDF7A3FC4FF4BA7201210348FDF792
:105568009DFC002038BDFBF737FFEAE7102000203C
:105578000000044008B5D0F8C402FCF7E9FF03288E
:1055880002D8024B185C08BD032008BDD857000894
:1055980010B51C46D0F8C40213462246FDF73AFB64
:1055A800032802D8024B185C10BD032010BD00BFB1
:1055B800D857000808B5D0F8C402FDF765FB0328E2
:1055C80002D8024B185C08BD032008BDD857000854
:1055D80008B5D0F8C402FDF7E1FB032802D8024B56
:1055E800185C08BD032008BDD857000808B5D0F8D6
:1055F800C402FDF717FC032802D8024B185C08BD4B
:10560800032008BDD85700080A06D0F8C43206D4CB
:10561800C1EBC10103EB810191F8FE01704701F074
:105628007F01C1EBC10103EB810191F83E00704796
:1056380008B5D0F8C402FDF7D9FA032802D8024BFE
:10564800185C08BD032008BDD857000808B5D0F875
:10565800C402FDF77FFB032802D8024B185C08BD83
:10566800032008BDD857000808B5D0F8C402FDF7D4
:105678003FFB032802D8024B185C08BD032008BD75
:10568800D8570008D0F8C402FDF75ABB10B5044635
:10569800A1B1012911D10268D0F80004D2F8003E66
:1056A80043F00103C2F8003EFFF782F9236A23B1F1
:1056B8000D4A136943F00603136110BD036A33B141
:1056C800FBF7F6FB084A136923F006031361226807
:1056D800D4F80004D2F8003E23F00103BDE81040DE
:1056E800C2F8003EFFF76EB900ED00E0DFF834D0F5
:1056F8000D480E490E4A002302E0D458C450043322
:10570800C4188C42F9D30B4A0B4C002301E01360F8
:105718000432A242FBD3FBF753FFFAF753FFFBF720
:1057280019FC70470000082000000020D409002060
:10573800F0570008D409002018240020FEE70000D4
:10574800024B13B10248FAF717BF70470000000078
:1057580099050008F8B500BFF8BC08BC9E4670471C
:0C576800F8B500BFF8BC08BC9E467047B6
:1057740008000020000000000000000001020304F3
:1057840006070809000610160006101643444320B5
:10579400436F6E666967000043444320496E746535
:1057A400726661636500000053544D6963726F65EE
:1057B4006C656374726F6E696373000053544D3388
:1057C40032205669727475616C20436F6D506F722C
:0857D400740000000003010352
:0857DC00D4AAFF7F01000000C8
:0857E4004957000861020008AA
:0457EC003902000876
:1057F000080000200000000000000000F40200206B
:105800005C030020C4030020000000000000000032
:105810000000000000000000000000000000000088
:105820000000000000000000000000000000000078
:105830000000000000000000000000000000000068
:105840000000000000000000000000000000000058
:105850000000000000000000000000000000000048
:105860000000000000000000000000000000000038
:105870000000000000000000000000000000000028
:105880000000000000000000000000000000000018
:105890000000000000000000000000000000000008
:1058A00001000000000000000E33CDAB34126DE6A5
:1058B000ECDE05000B00000000000000000000000E
:1058C00000000000000000000000000000000000D8
:1058D00000000000000000000000000000000000C8
:1058E00000000000000000000000000000000000B8
:1058F00000000000000000000000000000000000A8
:105C200000000000000000003004002030040020CC
:105C300038040020380400204004002040040020E4
:105C40004804002048040020500400205004002094
:105C50005804002058040020600400206004002044
:105C600068040020680400207004002070040020F4
:105C700078040020780400208004002080040020A4
:105C80008804002088040020900400209004002054
:105C90009804002098040020A0040020A004002004
:105CA000A8040020A8040020B0040020B0040020B4
:105CB000B8040020B8040020C0040020C004002064
:105CC000C8040020C8040020D0040020D004002014
:105CD000D8040020D8040020E0040020E0040020C4
:105CE000E8040020E8040020F0040020F004002074
:105CF000F8040020F8040020000500200005002022
:105D000008050020080500201005002010050020CF
:105D1000180500201805002020050020200500207F
:105D2000280500202805002030050020300500202F
:105D300038050020380500204005002040050020DF
:105D4000480500204805002050050020500500208F
:105D5000580500205805002060050020600500203F
:105D600068050020680500207005002070050020EF
:105D7000780500207805002080050020800500209F
:105D8000880500208805002090050020900500204F
:105D90009805002098050020A0050020A0050020FF
:105DA000A8050020A8050020B0050020B0050020AF
:105DB000B8050020B8050020C0050020C00500205F
:105DC000C8050020C8050020D0050020D00500200F
:105DD000D8050020D8050020E0050020E0050020BF
:105DE000E8050020E8050020F0050020F00500206F
